:100000000040002055010000B1010000B1010000D6
:1000100000000000000000000000000000000000E0
:10002000000000000000000000000000B10100001E
:100030000000000000000000B1010000B10100005C
:10004000B1010000B1010000B1010000B1010000E8
:10005000B1010000B1010000B1010000B1010000D8
:10006000B1010000B1010000B1010000B1010000C8
:10007000B1010000B1010000B1010000B1010000B8
:10008000B1010000B1010000B1010000B1010000A8
:10009000B1010000B1010000B1010000B101000098
:1000A000B1010000B1010000B1010000B101000088
:1000B000B0B584B000AF00F07FF800F0B1F8224B8B
:1000C0001A68214B01218A431A60204B1B68802249
:1000D000134003D1A12000F0CDF802E0A02000F0F1
:1000E000C9F80023BB6002E0BB680133BB60BA689B
:1000F000FA239B009A42F7DB0F257C1900F00EF9DA
:10010000030023707B191B78B12B06D10E4B1A68A4
:100110000D4B01218A431A600AE00F23FB181B785C
:10012000B02B05D1084B1A68074B01210A431A600E
:1001300000237B6002E07B6801337B607B68044ABC
:100140009342F8DDC1E7C0460002044004030440C6
:100150000F7A070080B582B000AF104B7B60104B68
:100160003B6007E07A68131D7B603B68191D3960AE
:1001700012681A603A680B4B9A42F3D30A4B3B6001
:1001800004E03B681A1D3A6000221A603A68074B87
:100190009A42F6D3FFF78CFFC046FDE7DC03000070
:1001A00000000020000000200000002000000020CF
:1001B00080B500AFC046FDE780B500AF134B1A68AD
:1001C000124B07218A431A60104B1A680F4B062105
:1001D0000A431A600E4B1A680D4B01210A431A603C
:1001E0000C4B1A680B4B0C490A401A60094B1A68F1
:1001F000084B8021C9030A431A60084B1A68074B51
:1002000080210A431A60C046BD4680BD08020440F2
:100210000002044008030440FFFF1FFF00030440E6
:1002200080B500AF104B1A680F4B120B12031A6007
:100230000D4B1A680C4B0D490A431A600A4B1A6899
:10024000094B10210A431A60094B1A68084B082110
:100250000A431A60064B1A68054B05218A431A6047
:10026000C046BD4680BDC04608050440860D00005E
:100270000005044080B586B000AF0200FB1D1A7077
:10028000254B1A68244B08218A431A6007237B6197
:1002900035E0FB1D1A787B691A41130001221340D7
:1002A00006D01D4B1A681C4B01210A431A6005E059
:1002B000194B1A68184B01218A431A6000233B61CD
:1002C00002E03B6901333B613B69632BF9DD124B73
:1002D0001A68114B04210A431A600023FB6002E0F4
:1002E000FB680133FB60FB68632BF9DD0A4B1A687E
:1002F000094B04218A431A607B69013B7B617B695E
:10030000002BC6DA044B1A68034B08210A431A6013
:10031000C046BD4606B080BD0005044080B586B02D
:1003200000AF1723FB1800221A702A4B1A68294BBA
:1003300008218A431A600023FB6002E0FB68013356
:10034000FB60FB68632BF9DD07233B6132E0214B47
:100350001A68204B04210A431A600023BB6002E0A4
:10036000BB680133BB60BB68C72BF9DD1A4B1B6848
:10037000022213400CD001223B699A4013005AB26A
:1003800017217B181B785BB213435AB27B181A7083
:10039000104B1A680F4B04218A431A6000237B60BC
:1003A00002E07B6801337B607B68C72BF9DD3B692A
:1003B000013B3B613B69002BC9DA064B1A68054BD0
:1003C00008210A431A601723FB181B781800BD4642
:0C03D00006B080BD000504400405044098
:0400000300000155A3
:00000001FF
