:020000040800F2
:1000000000000220B10000080D0100080D010008E9
:100010000D0100080D0100080D010008000000009E
:100020000000000000000000000000000D010008BA
:100030000D010008000000000D0100080D0100087E
:1000400080B582B000AF00F065F800F0DDF800F098
:10005000F7F80346FB71FB79A12B06D1124B1B6805
:10006000114A43F48053136008E0FB79A02B05D1BB
:100070000D4B1B680C4A23F4805313600B4B1B6819
:1000800003F00103002B14BF01230023DBB2BB717B
:10009000BB79002B01D0B12300E0B0237B717B79C9
:1000A000184600F063F8D2E7140C0240100002403A
:1000B00080B582B000AF104B7B60104B3B6007E017
:1000C0007A68131D7B603B68191D396012681A60DD
:1000D0003B680B4A9342F3D30A4B3B6004E03B6816
:1000E0001A1D3A6000221A603B68074A9342F6D311
:1000F000FFF7A6FF00BFFDE7C402000800000020D4
:1001000000000020000000200000002080B400AFAC
:1001100000BFFDE780B400AF104B1B680F4A43F0EF
:10012000090313600E4B1B680D4A23F040731360E4
:100130000B4B1B680A4A43F080731360094B1B6822
:10014000084A23F480531360074B1B68064A23F0C8
:100150000303136000BFBD4680BC704730380240C7
:10016000000C0240140C02400000024080B485B034
:1001700000AF0346FB7100BF214B1B6803F0100367
:10018000002BF9D000BF1E4B1B6803F01003002B9F
:10019000F9D10723FB6025E0FA79FB6842FA03F303
:1001A00003F00103002B06D0164B1B68154A43F0E1
:1001B0004003136005E0134B1B68124A23F0400311
:1001C000136000BF0E4B1B6803F02003002BF9D017
:1001D00000BF0B4B1B6803F02003002BF9D1FB6819
:1001E000013BFB60FB68002BD6DA064B1B68054A17
:1001F00023F04003136000BF1437BD4680BC704736
:10020000100002401400024080B400AF0A4B1B688B
:10021000094A43F001031360084B1B68074A23F4A3
:100220007F431360054B1B68044A43F480531360FB
:1002300000BFBD4680BC704730380240000002401D
:1002400080B483B000AF0023FB7100BF1C4B1B6860
:1002500003F01003002BF9D000BF194B1B6803F00B
:100260001003002BF9D107233B6020E000BF144BA3
:100270001B6803F02003002BF9D0114B1B6803F01F
:100280008003002B09D001223B6802FA03F35AB223
:1002900097F9073013435BB2FB7100BF084B1B6833
:1002A00003F02003002BF9D13B68013B3B603B6826
:1002B000002BDBDAFB7918460C37BD4680BC704753
:0402C00010000240E8
:04000005080000B13E
:00000001FF
